:020000040800F2
:10000000005000204D390008910B0008930B0008A8
:10001000950B0008970B0008990B000800000000E2
:100020000000000000000000000000009B0B000822
:100030009D0B0008000000009F0B0008A10B0008AA
:100040009539000895390008953900089539000858
:100050009539000895390008953900089539000848
:100060009539000895390008953900089539000838
:100070009539000895390008953900089539000828
:100080009539000895390008953900089539000818
:100090009539000895390008953900089539000808
:1000A00095390008953900089539000895390008F8
:1000B000A90B000895390008953900089539000802
:1000C00095390008953900089539000895390008D8
:1000D00095390008953900089539000895390008C8
:1000E000953900089539000895390008000000008E
:1000F0000000000000000000000000000000000000
:0C01000000000000000000005FF808F1A3
:10010C00034613F8012B002AFBD1181A013870474B
:10011C000348044B834202D0034B03B1184770478A
:10012C006800002068000020000000000548064B15
:10013C001B1AD90F01EBA301491002D0034B03B1D9
:10014C00184770476800002068000020000000007D
:10015C0010B5064C237843B9FFF7DAFF044B13B103
:10016C000448AFF300800123237010BD6800002009
:10017C0000000000B84C000808B5054B1BB1054940
:10018C000548AFF30080BDE80840FFF7CFBF00BFC4
:10019C00000000006C000020B84C0008844688B1B8
:1001AC00094B9B6873B100230AE0074A9268C3EBC2
:1001BC00C30102EB410212892CF813200133DBB28C
:1001CC00032BF2D9704700BF8400002068B108B53A
:1001DC000146002200E001328B5C002BFBD1642332
:1001EC0092B2024802F0A0F808BD704760010020EE
:1001FC0008B51B4B18705960032825D007D8012867
:10020C0016D0022818D008B902F0B0FD08BD072896
:10021C0022D007D80438C0B20228F7D8032002F045
:10022C00A5FDF3E70828F1D1052002F09FFDEDE7CD
:10023C00002002F09BFDE9E7012002F097FD084B3E
:10024C00986803F0A5F8E1E7022002F08FFD044B5B
:10025C00986803F0B3F8D9E7042002F087FDD5E7DE
:10026C008400002008B50E4802F02CFB002301E0AE
:10027C000133DBB2032B11D803EB4301094A02EB28
:10028C004102D289C72AF3D9064890F830100122CE
:10029C009A40D2B20A4380F83020E9E708BD00BF8B
:1002AC009000002084000020114B1B78072B1DD1DF
:1002BC000F4B9B68D3B10E4BDB6ABBB100B583B05F
:1002CC000C4802F0FFFA0B4BA3F10C00183300F1B1
:1002DC000C02C16A806803F091FA6846FFF75EFF72
:1002EC006946054802F0BAFC03B000BD704700BF78
:1002FC008400002090000020A800002070B5054666
:10030C00594B1B78042B61D01AD9072B00F09F8016
:10031C003CD8052B71D0062B46D10122524B93F8B9
:10032C0031101C4693F8300003F05EF894F831302D
:10033C00002B40F0878029460720FFF759FF33E058
:10034C00022B37D016D85BB3012B2DD103F0F4F967
:10035C0003F032FA444B986018B103780BB1437830
:10036C001BBB414B0F2283F8312029460820FFF795
:10037C003FFF19E0032B17D103F0AAFAA0B103F049
:10038C00ADFA29460420FFF733FF0DE0082B0BD103
:10039C0002F088FC344B93F8310003F04FF803E083
:1003AC0001460120FFF724FF70BD29460220FFF70C
:1003BC001FFFF9E72C4B5B68C31A40F2DB529342E8
:1003CC00F2D901460320FFF713FFEDE7264B4FF060
:1003DC00000283F830201C4683F83120FA2002F00A
:1003EC0087FB002294F8311094F8300002F0FCFFE7
:1003FC0029460520FFF7FCFED6E7FFF733FF002266
:10040C001146194B1C4693F8300002F0EDFF94F89E
:10041C0030300F2B11D0144A5268AA1A40F6B7315B
:10042C008A42C1D9DB4303F00F030F4A82F8313003
:10043C0029460620FFF7DCFEB6E729460620FFF723
:10044C00D7FEB1E729460820FFF7D2FEACE7064CF1
:10045C00A568E66A02F052FC034604F12402314618
:10046C00284602F0CFFF9FE78400002008B502F079
:10047C007BF908BD72B6FEE708B500211B4801F0F8
:10048C00ABF818BB0421194801F0A6F800BB0821F1
:10049C00164801F0A1F8E8B90C21144801F09CF8B9
:1004AC00D0B90146124801F02DF8B8B90421104812
:1004BC0001F028F8A0B908210D4801F023F888B9FB
:1004CC000C210B4801F01EF870B908BDFFF7D2FFE4
:1004DC00FFF7D0FFFFF7CEFFFFF7CCFFFFF7CAFF08
:1004EC00FFF7C8FFFFF7C6FFFFF7C4FF1801002096
:1004FC00D000002010B590B006AC28220021204678
:10050C0003F0AAFB00230193029303930493059336
:10051C00012206924FF4803307930A9202220D9225
:10052C000E934FF4E0130F93204601F08FF970B93E
:10053C000F2301930221029103904FF480620492E5
:10054C00059001A801F0B6FB18B910B010BDFFF76B
:10055C0091FFFFF78FFF000010B501F03DF9FFF799
:10056C00C9FF00F0E3F800F0B7FA5C48FFF72EFE85
:10057C0000F056F95A48FFF729FE00F037FA5948AF
:10058C00FFF724FEFFF778FF5748FFF71FFE02F036
:10059C00D1F85648FFF71AFE554802F0C7FA5548ED
:1005AC00FFF714FE02F0B8FB5348FFF70FFE03F001
:1005BC0087F95248FFF70AFE03F09CF95048FFF701
:1005CC0005FE03F0B1F84F48FFF700FE02F09AFE6B
:1005DC004D48FFF7FBFD02F0F1FF4C48FFF7F6FD2D
:1005EC0003F0AAF94A4BD86200249C6083F830408F
:1005FC0083F8314001F00EF9464B186001F00AF90E
:10060C00454B186001F006F9444B186001F002F9F3
:10061C00434B186001F0FEF8424B186001F0FAF8F9
:10062C00414B186001F0F6F801462046FFF7E0FD5B
:10063C0019E0394B1B68A34225D9384B1B68A342E0
:10064C0029D9394B1B68A3422DD9354B1B68A342C2
:10065C0035D92046FFF752FE204602F06BFE314B97
:10066C001B68A34232D901F0D5F8044602F0AAFF68
:10067C00284B1B68A342DCD804F11403254A1360F1
:10068C0003F024F9D5E704F13203234A1360204622
:10069C0002F0B0F8D1E704F16403204A136020465D
:1006AC0002F088FACDE704F1FA031F4A13602046E2
:1006BC0003F02CF903F040F9154BD862C5E704F1AF
:1006CC00FA03174A1360FFF7EFFDC2E704F1320299
:1006DC00144B1A60204602F04FFBC4E7D04C0008C4
:1006EC00E44C0008F84C00080C4D0008204D0008A4
:1006FC00D0000020344D0008444D0008544D000833
:10070C00644D0008784D00088C4D00089C4D000885
:10071C0084000020CC000020C8000020C400002071
:10072C00C0000020BC000020B80000202DE9F043E0
:10073C0089B004AD00240494059406940794354BB9
:10074C009A6942F010029A619A6902F010020092C2
:10075C00009A9A6942F020029A619A6902F020028A
:10076C000192019A9A6942F004029A619A6902F024
:10077C0004020292029A9A6942F008029A619B69F9
:10078C0003F008030393039BDFF88C9022464FF48D
:10079C006041484601F05CFC204E22464FF48071CB
:1007AC00304601F055FC4FF4604304934FF00108C0
:1007BC00CDF814800694022707972946484601F085
:1007CC0055FB4FF480730493CDF81480069407976F
:1007DC002946304601F04AFB2023049305940694E5
:1007EC0006F580662946304601F040FB22464FF460
:1007FC007E41304601F02CFC4FF47E430493CDF83F
:10080C001480069407972946304601F02FFB09B057
:10081C00BDE8F083001002400010014000080140C8
:10082C0000B58BB0002306930793089309930493A8
:10083C00059300930193029303932D484FF080424C
:10084C0002603F22426083604FF6FF72C260036118
:10085C00836100F0FDFB002832D14FF480530693E6
:10086C0006A9234800F0BFFD68BB214800F048FCF6
:10087C0060BB00230493059304A91D4800F04EFFB0
:10088C0038BB002200920123019302920392694625
:10089C00174800F03BFDF8B904226946144800F0F3
:1008AC0035FDE0B908226946114800F02FFDC8B9A2
:1008BC000C2269460E4800F029FDB0B90BB000BD02
:1008CC00FFF7D8FDC9E7FFF7D5FDCEE7FFF7D2FD5F
:1008DC00CFE7FFF7CFFDD4E7FFF7CCFDDCE7FFF761
:1008EC00C9FDDFE7FFF7C6FDE2E7FFF7C3FDE5E76C
:1008FC001801002000B589B00023049305930693DA
:10090C0007930368B3F1804F04D0194A934224D063
:10091C0009B000BD03F50433DA6942F00102DA6173
:10092C00DA6902F001020192019A9A6942F004021A
:10093C009A619B6903F004030293029B0F230493B7
:10094C0004A90C4801F092FA002211461C2001F077
:10095C00CFFB1C2001F0DCFBDAE7074BDA6942F035
:10096C000202DA61DB6903F002030393039BCFE716
:10097C0000040040000801400010024010B586B091
:10098C00002302930393049305930268134B9A423A
:10099C0001D006B010BD124CA36943F00403A3614F
:1009AC00A36903F004030093009BC023029302236A
:1009BC000393059302A90B4801F058FAA36943F07D
:1009CC000803A361A36903F008030193019B0323AC
:1009DC00029302A9044801F049FADAE70004004046
:1009EC000010024000080140000C014000B58FB01F
:1009FC0000230A930B930C930D9308930993019383
:100A0C000293039304930593069307933048314A5A
:100A1C0002604360836040F23F12C2600361802336
:100A2C00836100F015FB00283AD14FF480530A93F0
:100A3C000AA9274800F0D7FC002834D1244800F03C
:100A4C0033FB002832D100230893099308A92048CE
:100A5C0000F064FE68BB6023019340F23F130293E5
:100A6C0000220392059201A9194800F0AFFB18BBB4
:100A7C0004220DEB0201164800F0A8FBF8B908227D
:100A8C0001A9134800F0A2FBE0B90C2201A91048FF
:100A9C0000F09CFBC8B90E48FFF770FF0FB000BD0B
:100AAC00FFF7E8FCC1E7FFF7E5FCC7E7FFF7E2FC5F
:100ABC00C9E7FFF7DFFCCEE7FFF7DCFCD8E7FFF771
:100ACC00D9FCDCE7FFF7D6FCDFE7FFF7D3FCE2E766
:100ADC00D00000200004004008B50A480A4B03600F
:100AEC004FF49643436000238360C36003610C2280
:100AFC0042618361C36101F0E7FB00B908BDFFF7F8
:100B0C00B9FCFBE7600100200038014000B587B05C
:100B1C00002302930393049305930268174B9A42A4
:100B2C0001D007B000BD03F558439A6942F48042E6
:100B3C009A619A6902F480420092009A9A6942F092
:100B4C0004029A619B6903F004030193019B4FF427
:100B5C0000730293022303930323059302A908480D
:100B6C0001F084F94FF48063029300230393049300
:100B7C0002A9034801F07AF9D3E700BF003801401D
:100B8C0000080140FEE7FEE7FEE7FEE7FEE77047E0
:100B9C007047704708B500F031FE08BD08B5024833
:100BAC0000F064F908BD00BF1801002082B00E4BA4
:100BBC009A6942F001029A619A6902F0010200926C
:100BCC00009ADA6942F08052DA61DB6903F08053F3
:100BDC000193019B054A536823F0E06343F00073D3
:100BEC00536002B0704700BF00100240000001408B
:100BFC0000B5026A036A23F001030362D0F804E033
:100C0C00836923F07303D1F800C04CEA030C22F083
:100C1C0002028B6813430F4A90420AD00D4A90424D
:100C2C000ED0C0F804E0C0F818C04A6842630362F2
:100C3C0000BD23F00803CA681A4322F00403EDE751
:100C4C002EF4407E4A6942EA0E02D1F818E04EEAD0
:100C5C00020EE6E7002C014000B5036A026A22F49A
:100C6C0080720262D0F804C0C26922F07302D1F81B
:100C7C0000E04EEA020E23F400738A6843EA022372
:100C8C000F4A90420AD00E4A90420FD0C0F804C0CE
:100C9C00C0F81CE04A68C263036200BD23F4006321
:100CAC00CA6843EA022323F48063ECE72CF4405C2B
:100CBC004A694CEA021C8A694CEA021CE6E700BF4E
:100CCC00002C014000B5036A026A22F480520262D1
:100CDC00D0F804C0C26922F4E642D1F800E042EA3E
:100CEC000E2223F40053D1F808E043EA0E33DFF868
:100CFC0024E0704506D0C0F804C0C2614A680264A2
:100D0C00036200BD2CF4804CD1F814E04CEA8E1C2C
:100D1C00F1E700BF002C0140036AD0F820C02CF092
:100D2C00010CC0F820C0D0F818C02CF0F00C4CEA24
:100D3C00021223F00A030B4382610362704700B571
:100D4C00D0F820E0D0F820C02CF0100CC0F820C057
:100D5C00D0F818C02CF4407C4CEA022C2CF4704CCB
:100D6C001B039BB243EA0C032EF0A00E090101F009
:100D7C00A00141EA0E018361016200BD036AD0F853
:100D8C0020C02CF0100CC0F820C0D0F818C02CF4E7
:100D9C00704C4CEA023223F0A00343EA0113826147
:100DAC000362704700B5D0F820E0D0F820C02CF4D6
:100DBC00807CC0F820C0D0F81CC02CF0030C4CEA8E
:100DCC00020C2CF0F00C1B01DBB243EA0C032EF4EA
:100DDC00007E090201F4007141EA0E01C361016257
:100DEC0000BD00B5D0F820E0D0F820C02CF4805C19
:100DFC00C0F820C0D0F81CC02CF4407C4CEA022C6B
:100E0C002CF4704C1B039BB243EA0C032EF4005ED3
:100E1C00090301F4005141EA0E01C361016200BDF6
:100E2C00836823F070030B4343F007038360704720
:100E3C0070477047082912D007D869B1042902D12C
:100E4C000368986B7047002070470C2902D1036827
:100E5C00186C7047002070470368586B7047036824
:100E6C00D86B7047704770477047704770B5044631
:100E7C000368DE681D6915F0020F10D016F0020F22
:100E8C000DD06FF002021A610123037703689B698E
:100E9C0013F0030F5ED0FFF7E9FA0023237715F068
:100EAC00040F12D016F0040F0FD023686FF0040259
:100EBC001A610223237723689B6913F4407F4FD078
:100ECC002046FFF7D3FA0023237715F0080F12D032
:100EDC0016F0080F0FD023686FF008021A61042374
:100EEC0023772368DB6913F0030F40D02046FFF70C
:100EFC00BDFA0023237715F0100F12D016F0100F47
:100F0C000FD023686FF010021A610823237723682F
:100F1C00DB6913F4407F31D02046FFF7A7FA00239A
:100F2C00237715F0010F02D016F0010F2DD115F01B
:100F3C00800F02D016F0800F2FD115F0400F02D089
:100F4C0016F0400F31D115F0200F02D016F0200F03
:100F5C0033D170BDFFF787FF2046FFF785FF9CE775
:100F6C002046FFF780FF2046FFF77EFFABE72046C9
:100F7C00FFF779FF2046FFF777FFBAE72046FFF728
:100F8C0072FF2046FFF770FFC9E723686FF001027C
:100F9C001A612046FFF766FFC9E723686FF08002ED
:100FAC001A61204600F0F1FBC7E723686FF040029E
:100FBC001A612046FFF759FFC5E723686FF020023E
:100FCC001A61204600F0E0FBC3E7000003681F4AEB
:100FDC0090420AD0B0F1804F07D0A2F594329042E3
:100FEC0003D002F58062904203D123F070034A686B
:100FFC001343164A90420AD0B0F1804F07D0A2F5A5
:10100C009432904203D002F58062904203D123F4D3
:10101C004073CA68134323F080034A691343036087
:10102C008B68C3620B688362084B98420AD0012319
:10103C004361036913F0010F03D0036923F001032B
:10104C00036170470B690363F1E700BF002C01409B
:10105C0040B310B5044690F83D30F3B1022384F848
:10106C003D30214651F8040BFFF7B0FF012384F803
:10107C00463084F83E3084F83F3084F8403084F8B1
:10108C00413084F8423084F8433084F8443084F89A
:10109C00453084F83D30002010BD80F83C30FFF71F
:1010AC0029FCDBE70120704740B310B5044690F8EB
:1010BC003D30F3B1022384F83D30214651F8040B46
:1010CC00FFF784FF012384F8463084F83E3084F81F
:1010DC003F3084F8403084F8413084F8423084F852
:1010EC00433084F8443084F8453084F83D30002097
:1010FC0010BD80F83C30FFF79BFEDBE7012070470A
:10110C0040B310B5044690F83D30F3B1022384F897
:10111C003D30214651F8040BFFF758FF012384F8AA
:10112C00463084F83E3084F83F3084F8403084F800
:10113C00413084F8423084F8433084F8443084F8E9
:10114C00453084F83D30002010BD80F83C30FFF76E
:10115C0070FEDBE70120704700B5036A026A22F0DB
:10116C0010020262D0F804C0826922F4E642D1F87F
:10117C0000E042EA0E2223F02003D1F808E043EA13
:10118C000E13DFF844E070450AD0DFF83CE0704500
:10119C000FD0C0F804C082614A688263036200BD4C
:1011AC0023F08003D1F80CE043EA0E1323F0400344
:1011BC00EBE72CF4406CD1F814E04CEA8E0CD1F82F
:1011CC0018E04CEA8E0CE4E7002C014038B590F89E
:1011DC003C30012B69D00446012380F83C30082AAE
:1011EC004ED01BD8002A33D0042A15D10D460068E6
:1011FC00FFF7B2FF2268936943F40063936122689E
:10120C00936923F48063936122689369296943EAA3
:10121C000123936100202FE018462DE00C2A15D1F4
:10122C000D460068FFF74EFD2268D36943F4006356
:10123C00D3612268D36923F48063D3612268D369B4
:10124C00296943EA0123D361002015E0012013E052
:10125C000D460068FFF7CCFC2268936943F0080345
:10126C0093612268936923F0040393612268936964
:10127C0029690B4393610020002384F83C3038BD6E
:10128C000D460068FFF7E8FC2268D36943F00803B9
:10129C00D3612268D36923F00403D3612268D36934
:1012AC0029690B43D3610020E6E70220E7E7000041
:1012BC0010B51446D0F820E0026A22F00102026256
:1012CC008269DFF844C060450DD0B0F1804F0AD080
:1012DC00ACF5943C604506D00CF5806C604502D0B2
:1012EC0042F0010203E022F0030C4CEA040222F06B
:1012FC00F0021B01DBB213432EF00A0201F00A01CB
:10130C0011438361016210BD002C014038B590F887
:10131C003C30012B5AD004460D46012380F83C305A
:10132C0052B1042A1AD0082A2BD00C2A3BD0012007
:10133C00002384F83C3038BDCB684A6809680068E3
:10134C00FFF7B6FF2268936923F00C0393612268C0
:10135C009369A9680B4393610020E9E7CB684A685D
:10136C0009680068FFF7EBFC2268936923F440637B
:10137C00936122689369A96843EA01239361002071
:10138C00D6E7CB684A6809680068FFF70BFD22684E
:10139C00D36923F00C03D3612268D369A9680B438A
:1013AC00D3610020C4E7CB684A6809680068FFF77E
:1013BC0018FD2268D36923F44063D3612268D36992
:1013CC00A96843EA0123D3610020B1E70220B2E708
:1013DC00D0F808C02CF47F4C42EA03220A4342EABC
:1013EC000C028260704790F83C30012B78D010B51D
:1013FC000446012380F83C30022380F83D3002681B
:10140C00936823F47F4323F0770393600B68602B7E
:10141C004CD023D8402B54D011D8202B03D00AD831
:10142C000BB1102B05D119462068FFF7F9FC0020F1
:10143C0028E0012026E0302BF5D0012022E0502BB3
:10144C000AD1CA6849680068FFF766FC5021206819
:10145C00FFF7E6FC002015E0012013E0B3F5805FF8
:10146C003AD0B3F5005F14D0702B37D1CB684A68F3
:10147C0089680068FFF7ACFF2268936843F0770334
:10148C0093600020012384F83D30002384F83C3025
:10149C0010BDCB684A6889680068FFF799FF22681D
:1014AC00936843F4804393600020EBE7CA68496873
:1014BC000068FFF763FC60212068FFF7B1FC002097
:1014CC00E0E7CA6849680068FFF726FC40212068FD
:1014DC00FFF7A6FC0020D5E70020D3E70120D1E7D9
:1014EC000220704701F01F014FF0010C0CFA01FCB7
:1014FC00036A23EA0C030362036A8A401343036200
:10150C007047000010B50446084649BB94F83E30BD
:10151C00013B18BF0123002B58D1002836D10223E0
:10152C0084F83E30012201462068FFF7DBFF236878
:10153C00284A93423AD02368264A93423BD0B3F1CF
:10154C00804F38D0A2F59432934234D002F58062A9
:10155C00934230D01A6842F001021A60002036E043
:10156C00042907D008290BD094F84130013B18BF4F
:10157C000123D0E794F83F30013B18BF0123CAE7A1
:10158C0094F84030013B18BF0123C4E7042805D070
:10159C00082807D0022384F84130C3E7022384F8DB
:1015AC003F30BFE7022384F84030BBE75A6C42F46B
:1015BC0000425A64BFE79A6802F00702062A07D075
:1015CC001A6842F001021A60002000E0012010BDF0
:1015DC000020FCE7002C014010B504460B4689BBEB
:1015EC0090F83E00C0B294F84220D2B2012840F0EC
:1015FC008E80012A40F08C80002B42D1022284F88C
:10160C003E2084F842202168CA6842F00202CA6077
:10161C00012219462068FFF765FF23683E4A934272
:10162C006AD0B3F1804F67D0A2F59432934263D065
:10163C0002F5806293425FD01A6842F001021A6090
:10164C00002065E004290CD008290ED090F8410048
:10165C00C0B2042B0DD0082B0FD094F84520D2B279
:10166C00C4E790F83F00C0B2F3E790F84000C0B276
:10167C00EFE794F84320D2B2B8E794F84420D2B202
:10168C00B4E7042B14D0082B16D0022184F8411097
:10169C00042B15D0082B1CD0022184F84510082BE4
:1016AC001AD01FD8002BAED0042B0CD010462FE034
:1016BC00022184F83F10EBE7022184F84010E7E7A1
:1016CC00022284F843202168CA6842F00402CA60EE
:1016DC009EE7022284F844202168CA6842F008027E
:1016EC00CA6095E70C2B05D12168CA6842F010023C
:1016FC00CA608DE710460BE09A6802F00702062AD2
:10170C0007D01A6842F001021A60002000E00120A4
:10171C0010BD0020FCE700BF002C014090F83C20DD
:10172C00012A2DD000B50346012280F83C2002226C
:10173C0080F83D2002685068D2F808E020F0700C68
:10174C00086840EA0C0050601A680E4882420AD0C1
:10175C00B2F1804F07D0A0F59430824203D000F54F
:10176C008060824205D12EF0800E496841EA0E015C
:10177C009160012283F83D20002083F83C0000BDDD
:10178C0002207047002C01407047704710B504468A
:10179C000E4B18680E4B1A784FF47A73B3FBF2F3B6
:1017AC00B0FBF3F000F0C2FC68B90F2C01D901209A
:1017BC000AE0024621464FF0FF3000F099FC054B41
:1017CC001C60002000E0012010BD00BF08000020BC
:1017DC00000000200400002008B5074A136843F0FD
:1017EC0010031360032000F071FC0F20FFF7CEFFF5
:1017FC00FFF7DCF9002008BD00200240034A116805
:10180C00034B1B780B441360704700BFA8010020EA
:10181C0000000020014B1868704700BFA801002091
:10182C0082B0084B1B68084AA2FB03235B0A00FB2F
:10183C0003F3019300BF019B5A1E0192002BF9D1B7
:10184C0002B0704708000020D34D6210002800F051
:10185C00F38170B582B00446036813F0010F2CD0ED
:10186C009A4B5B6803F00C03042B1DD0974B5B6801
:10187C0003F00C03082B12D06368B3F5803F41D002
:10188C00002B55D103F1804303F504331A6822F47D
:10189C0080321A601A6822F480221A6037E08B4B6F
:1018AC005B6813F4803FE7D0884B1B6813F4003F50
:1018BC0003D06368002B00F0C181236813F0020F82
:1018CC0075D0824B5B6813F00C0F5FD07F4B5B685D
:1018DC0003F00C03082B54D02369002B00F08A80F2
:1018EC007B4B01221A60FFF795FF0546774B1B686F
:1018FC0013F0020F75D1FFF78DFF401B0228F5D9AD
:10190C000320A0E1714A136843F4803313606368C9
:10191C0043B3FFF77FFF05466C4B1B6813F4003F86
:10192C00CBD1FFF777FF401B6428F5D903208AE160
:10193C00B3F5A02F09D0654B1A6822F480321A60D7
:10194C001A6822F480221A60E1E703F18043A3F5C0
:10195C003C331A6842F480221A601A6842F48032CE
:10196C001A60D4E7FFF756FF0546584B1B6813F473
:10197C00003FA2D0FFF74EFF401B6428F5D903208F
:10198C0061E1524B5B6813F4803FA5D14F4B1B6850
:10199C0013F0020F03D02369012B40F051814B4A05
:1019AC00136823F0F803616943EAC10313602368E9
:1019BC0013F0080F33D0A369002B5DD0444B0122E8
:1019CC00C3F88024FFF726FF0546404B5B6A13F0F3
:1019DC00020F21D1FFF71EFF401B0228F5D903206F
:1019EC0031E13A4A136823F0F803616943EAC10311
:1019FC001360DCE7364B00221A60FFF70BFF05463D
:101A0C00324B1B6813F0020FD1D0FFF703FF401BC2
:101A1C000228F5D9032016E10120FFF701FF236806
:101A2C0013F0040F00F09880284BDB6913F0805FF3
:101A3C0035D1264BDA6942F08052DA61DB6903F06A
:101A4C0080530193019B01231E46224B1B6813F408
:101A5C00807F27D0E368012B3ED0002B54D103F1BB
:101A6C00804303F504331A6A22F001021A621A6ADF
:101A7C0022F004021A6234E0154B0022C3F88024D1
:101A8C00FFF7C8FE0546114B5B6A13F0020FC6D078
:101A9C00FFF7C0FE401B0228F5D90320D3E000233A
:101AAC001E46D2E70B4A136843F480731360FFF7AA
:101ABC00B1FE0546074B1B6813F4807FCAD1FFF7B4
:101ACC00A9FE401B6428F5D90320BCE0001002409D
:101ADC0000004242007000405F4A136A43F0010369
:101AEC001362E36833B3FFF795FE05465A4B1B6A46
:101AFC0013F0020F2FD1FFF78DFE401B41F28833FC
:101B0C009842F3D903209EE0052B09D0524B1A6A58
:101B1C0022F001021A621A6A22F004021A62E0E749
:101B2C004D4B1A6A42F004021A621A6A42F0010220
:101B3C001A62D6E7FFF76EFE0546474B1B6A13F099
:101B4C00020F08D0FFF766FE401B41F28833984223
:101B5C00F3D9032077E0E6B9E369002B72D03E4A53
:101B6C00526802F00C02082A56D0022B17D03B4BBD
:101B7C0000221A66FFF74EFE0446374B1B6813F023
:101B8C00007F47D0FFF746FE001B0228F5D9032043
:101B9C0059E0314AD36923F08053D361DCE72F4BF2
:101BAC0000221A66FFF736FE05462B4B1B6813F016
:101BBC00007F06D0FFF72EFE401B0228F5D903202C
:101BCC0041E0236AB3F5803F1AD023494B6823F4D4
:101BDC007413226A606A024313434B601F4B012249
:101BEC001A66FFF717FE04461B4B1B6813F0007FA9
:101BFC000ED1FFF70FFE001B0228F5D9032022E0BF
:101C0C00154A536823F40033A1680B435360DCE797
:101C1C00002018E0002016E0012B16D00E4B5B685C
:101C2C0003F48031226A914211D103F47013626A79
:101C3C0093420ED1002006E001207047012002E003
:101C4C00012000E0184602B070BD0120FBE7012026
:101C5C00F9E70120F7E700BF001002400000424204
:101C6C000F4B5B6803F00C02082A01D00D4870473B
:101C7C00C3F383420C49885C13F4803F0BD0084BB0
:101C8C005B68C3F34043094AD35C064A02FB00F08D
:101C9C00B0FBF3F07047064B03FB00F0704700BF3E
:101CAC000010024000127A00B0510008AC5100083C
:101CBC0000093D00002800F0A08070B50D460446D8
:101CCC00524B1B6803F007038B420BD24F4A13682D
:101CDC0023F007030B431360136803F007038B42D5
:101CEC0040F08D80236813F0020F17D013F0040F0F
:101CFC0004D0474A536843F4E0635360236813F0FD
:101D0C00080F04D0424A536843F460535360404A6E
:101D1C00536823F0F003A1680B435360236813F05E
:101D2C00010F31D06368012B20D0022B25D0384A0B
:101D3C00126812F0020F64D035494A6822F003028F
:101D4C0013434B60FFF766FD0646314B5B6803F0AF
:101D5C000C036268B3EB820F16D0FFF75BFD801BA0
:101D6C0041F288339842F0D9032045E0284A1268A2
:101D7C0012F4003FE0D101203EE0254A126812F037
:101D8C00007FD9D1012037E0204B1B6803F00703FB
:101D9C00AB420AD91D4A136823F007032B43136087
:101DAC00136803F00703AB422DD1236813F0040F23
:101DBC0006D0174A536823F4E063E1680B43536081
:101DCC00236813F0080F07D0114A536823F46053AB
:101DDC00216943EAC1035360FFF742FF0C4B5B6878
:101DEC00C3F303130B4AD35CD8400B4B18600B4B5B
:101DFC001868FFF7CBFC002070BD01207047012054
:101E0C00FAE70120F8E70120F6E700BF00200240C6
:101E1C0000100240C85100080800002004000020F7
:101E2C00014B1868704700BF0800002008B5FFF789
:101E3C00F7FF044B5B68C3F30223034AD35CD8401F
:101E4C0008BD00BF00100240C051000808B5FFF7E4
:101E5C00E7FF044B5B68C3F3C223034AD35CD8404F
:101E6C0008BD00BF00100240C051000870B582B020
:101E7C004FF0000EF446A4E0012B28D0022B03D126
:101E8C00CB6803F1080E24E01BBB8B68002B65D0DC
:101E9C00012B5CD042614FF0080E1AE0664DAB424C
:101EAC00F3D00CD8A5F58015AB42EED005F5702516
:101EBC00AB42EAD0A5F58015AB42E6D009E05F4D08
:101ECC00AB42E2D005F58035AB42DED001E0D1F873
:101EDC000CE0FF2C45D806464FEA8C0233680F25E0
:101EEC00954023EA05030EFA02F2134333604B6864
:101EFC0013F0805F63D0524B9A6942F001029A61F1
:101F0C009B6903F001030193019B4FEA9C02951C12
:101F1C004C4B53F825600CF00305AD000F23AB4080
:101F2C0026EA0306484B984222D003F58063984278
:101F3C0063D003F58063984261D003F580639842C7
:101F4C0014D0042315E0CB6803F10C0EC1E7026139
:101F5C004FF0080EBDE74FF0000EBAE74FF0040E3D
:101F6C00B7E7061DACF108029200B7E7032300E0C7
:101F7C000023AB4033430232324D45F822304B68DC
:101F8C0013F4801F3DD0314A9368234393604B6810
:101F9C0013F4001F3BD02D4AD3682343D3604B6806
:101FAC0013F4003F39D0294A5368234353604B68DC
:101FBC0013F4803F37D0254A1368234313600CF188
:101FCC00010C0B6833FA0CF233D0012202FA0CF23A
:101FDC0003EA020432EA0303F1D14B68032BBAD0B3
:101FEC007FF64AAF122BAED03FF658AF112B7FF4D1
:101FFC0070AFCB6803F1040E6BE70123B9E7022342
:10200C00B7E7124A936823EA04039360BFE70F4AC9
:10201C00D36823EA0403D360C1E70C4A536823EA6C
:10202C0004035360C3E7094A136823EA04031360EB
:10203C00C5E702B070BD00BF0000221000003110D7
:10204C000010024000000140000801400004014063
:10205C000AB101617047090401617047002808DB6F
:10206C000901C9B200F1604000F5614080F800132D
:10207C00704700F00F000901C9B2014B19547047A9
:10208C0014ED00E000B500F00700A0F1030CBCF16A
:10209C00040F07D8C0F1070E0430062806D84FF0FD
:1020AC00000C03E04FF0040E4FF0000C4FF0FF3328
:1020BC0003FA0EF021EA000101FA0CF103FA0CF319
:1020CC0022EA030241EA020000BD0000074AD3687D
:1020DC0023F4E0631B041B0C000200F4E0600343D8
:1020EC0043F0BF6343F40033D360704700ED00E06E
:1020FC0010B50446054BD868C0F30220FFF7C2FFA9
:10210C0001462046FFF7AAFF10BD00BF00ED00E01E
:10211C00002807DB00F01F02400901239340024A0C
:10212C0042F82030704700BF00E100E00138B0F108
:10213C00807F0BD24FF0E0235861054AF02182F8E2
:10214C0023100020986107221A6170470120704704
:10215C0000ED00E0026802F10C0353E8003F23F4A9
:10216C0090730C3242E800310029F3D1026802F17D
:10217C00140353E8003F23F00103143242E800310A
:10218C000029F3D1036B012B05D0202380F84230BA
:10219C00002303637047026802F10C0353E8003F0D
:1021AC0023F010030C3242E800310029F3D1ECE7A4
:1021BC0010B504460268136923F44053C1680B43FD
:1021CC00136183680269134342691A430168CB683F
:1021DC0023F4B05323F00C031343CB600268536910
:1021EC0023F4407381690B4353610268134B9A4289
:1021FC0020D0FFF71BFE024602EB820202EB8202AA
:10220C0063689B00B2FBF3F20D48A0FB0231490955
:10221C00642303FB11231B013233A0FB03035B0973
:10222C0003F0F00202EB011203F00F0321681344D8
:10223C008B6010BDFFF70AFE0246DDE70038014057
:10224C001F85EB512DE9F04182B004460D46164630
:10225C009846089F23681B6835EA03030CBF4FF0B0
:10226C00010C4FF0000CB44526D1B7F1FF3FF1D073
:10227C00FFF7D0FA4346C01AB84221D817B32368E7
:10228C00DA6812F0040FE5D0802DE3D0402DE1D0B8
:10229C001A6812F0080FDDD0002501951A6801921A
:1022AC005B680193019B2046FFF754FF082363648E
:1022BC0084F84050012000E0002002B0BDE8F0811D
:1022CC000320FAE70320F8E760B310B5044690F852
:1022DC00413013B3242384F841302268D36823F4AB
:1022EC000053D3602046FFF763FF2268136923F481
:1022FC00904313612268536923F02A0353612268C7
:10230C00D36843F40053D36000206064202384F826
:10231C00413084F84230606310BD80F84030FEF7E5
:10232C00F5FBD7E7012070472DE9F04184B01E463C
:10233C0090F84130202B57D104460D46002957D038
:10234C0003920AB9012050E000234364212380F852
:10235C004130FFF75FFA0746039BA384E384A3682D
:10236C00B3F5805F02D00023984616E023693BB397
:10237C000023984611E0202384F84130032034E0F8
:10238C00424632F8023B90462268C3F3080353607E
:10239C00E28C92B2013A92B2E284E38C9BB293B19A
:1023AC0000963B46002280212046FFF74BFF002879
:1023BC00E1D1002DE4D015F8012B23685A60E7E732
:1023CC00A8461D46E9E700963B46002240212046E0
:1023DC00FFF738FF18B9202384F8413005E020239B
:1023EC0084F84130032000E0022004B0BDE8F08105
:1023FC000120FAE72DE9F04182B01E4690F84230F8
:10240C00202B5AD104460D461746002959D00AB93B
:10241C00012053E000234364222280F8422003630E
:10242C00FFF7F8F98046A785E785A368B3F5805FC9
:10243C0002D000231F461CE02369002B35D000235B
:10244C001F4616E0202384F84230032036E0236830
:10245C005B68C3F308033A4622F8023B174603E0D5
:10246C0023685B682B700135E28D92B2013A92B20F
:10247C00E285E38D9BB2DBB100964346002220211E
:10248C002046FFF7DFFE0028DCD1002DDFD0A3684B
:10249C00B3F5805FE4D013B92369002BE0D0236837
:1024AC005B6803F07F032B70DDE72F461D46E0E7EA
:1024BC00202384F84230002000E0022002B0BDE866
:1024CC00F0810120FAE7704708B503460D4A0E4922
:1024DC000E48006840B10D4800680344521A9342FC
:1024EC0008D80A4A136008BD0848DFF824C0C0F8B1
:1024FC0000C0F0E701F0CAFB0C2303604FF0FF3083
:10250C00F1E700BF0050002000040000AC010020E7
:10251C00D804002070B50E461546002406E001F0E4
:10252C00EFF8314601F8010B01340E46AC42F6DBF4
:10253C00284670BD70B50C461646002504E014F80C
:10254C00010B01F0CBF80135B542F8DB304670BD1C
:10255C004FF0FF3070474FF400534B600020704732
:10256C00012070470020704782B00023019302E0E5
:10257C00019B013301934FF4FA5300FB03F3019ACF
:10258C009342F5D802B0704782B00023019302E069
:10259C00019B01330193019B312BF9D902B0704798
:1025AC0038B5054C4FF400652561FFF7EDFF65610B
:1025BC00FFF7EAFF38BD00BF000C014008B5054B22
:1025CC004FF470425A61000380B21861FFF7E8FFC4
:1025DC0008BD00BF000C014010B50446074B4FF47A
:1025EC0000725A614FF480625A610009FFF7E6FFEE
:1025FC0004F00F00FFF7E2FF10BD00BF000C01401C
:10260C0010B50446074B4FF400721A614FF4806208
:10261C005A610009FFF7D2FF04F00F00FFF7CEFF5D
:10262C0010BD00BF000C014010B5044618B905E000
:10263C000134FFF7E5FF20780028F9D110BD000028
:10264C00032901D8132800D9704708B5034B5B5CEC
:10265C001844C0B2FFF7C0FF08BD00BFD851000836
:10266C0008B53220FFF780FF3320FFF7B5FF32208B
:10267C00FFF7B2FF2820FFF7AFFF0C20FFF7ACFFEE
:10268C000620FFF7A9FF0120FFF7A6FF0220FFF7A6
:10269C006BFF08BD08B50120FFF79EFF0220FFF776
:1026AC0063FF08BD3AB110B51446FFF7C9FF2046C9
:1026BC00FFF7BAFF10BD7047037F042B0AD005D873
:1026CC00012B09D0022B09D101207047082B08D10E
:1026DC000320704702207047002070474FF0FF30F6
:1026EC0070474FF0FF30704700238375C37506E0C9
:1026FC001A1D00EB42020021D1800133DBB2032B07
:10270C00F6D9704790F816C0BCF1000F0FD000231B
:10271C00194606E01A1D00EB4202D288114401331F
:10272C00DBB29C45F6D8B1FBFCF080B2704760463A
:10273C007047000070B5002511E00A4C04EB4514FD
:10274C0001232373002666732046FFF7CDFF4FF05D
:10275C00000326836683237763770135EDB2032D5F
:10276C00EBD970BDB001002000283FD070B50446F5
:10277C000368B3F1804F00D070BDFFF79DFF054695
:10278C000328F9D881002046FEF754FB184B03EBC5
:10279C0045131B7BABB96B01154AD35883421ED82A
:1027AC006B01D458041B124A6B0102EB4516D05036
:1027BC00FFF730F8B060002CDED074600122727329
:1027CC00DAE70B4B6A0103EB45149850FFF722F83C
:1027DC00A06000232373012222776377CCE76B017F
:1027EC00034AD458041B04F58034DCE7704700BF5F
:1027FC00B001002070B50646002417E000214FF010
:10280C000002018341830277012141774273FFF774
:10281C006BFF09E0FFF776FF224B03EB4513588360
:10282C0001221A7700225A770134E4B2032C37D8EC
:10283C0025461C4800EB4410037B23B98368F31A2C
:10284C00B3F5966FDAD8174B03EB45135B7B002B74
:10285C00EAD0144B03EB451300225A735A68124BFF
:10286C00B3FBF2F3B3F5803F01D34FF6FF739BB28A
:10287C00DFF830C00CEB45110B83CA7D02EB051E53
:10288C000EF1040E0CEB4E0CACF80630013202F0DB
:10289C000302CA758B7D032BBCD801338B75B9E74A
:1028AC0070BD00BFB001002070383900032804D877
:1028BC0040011830024B184470470020704700BF8D
:1028CC00B0010020B8B184460023032B12D800B508
:1028DC0003EB43010CEB410E074A02EB43129069E8
:1028EC004CF81100928BAEF804200133DBB2032BB1
:1028FC00EED900BD70477047B0010020431D05485C
:10290C00A0FB0320C00840F2F132934200D96420AE
:10291C00C0B27047CDCCCCCC70B584B004460A465E
:10292C000025009501950295039581898068FFF734
:10293C008FFBA38900930123019302950223039338
:10294C006946A068FFF792FA04B070BD00B585B077
:10295C0069460023009301930293039383890093A8
:10296C000223019303938068FFF780FA05B000BD42
:10297C0000283DD010B50446036843B3836833B3D5
:10298C00C389EBB1B3F57A7F1ED2FFF7DFFFE38982
:10299C00C3EB0362C3EB82039B0103F59C2202F59C
:1029AC0000721449A1FB0212920913498B4201D8FF
:1029BC0040F23F1263685BB923681B685A6306E0F8
:1029CC000121FFF7A9FF02E00021FFF7A5FF10BDD1
:1029DC00042B05D0082B07D023681B681A64F6E774
:1029EC0023681B689A63F2E723681B68DA63EEE7D7
:1029FC00704700BFD34D6210FF1DFBFFF8B50446B6
:102A0C0017460846FFF752FF002C41D00546002818
:102A1C003ED0E6893046FFF771FF84F822006B88C0
:102A2C00E383002323770423E376AEB12B791BB326
:102A3C006B88C72B20D90223A376012323766988C0
:102A4C00228A02F132039BB299420DD9164B1B78A4
:102A5C0043B10523E37619E0A676E676E683268471
:102A6C00268215E00123F5E7322A0FD93231914243
:102A7C000CD20323E37609E06369FA1A40F2DC53C3
:102A8C009A4206D80123A3760223E3766B8823822D
:102A9C00F8BD0323A3760223E376237E13B102232E
:102AAC002377F3E70123FBE73002002003281BD830
:102ABC0070B504460D46B1F57A7F01D94FF47A759D
:102ACC0004EBC403094E06EB8306F581FEF7A2FE68
:102ADC0070610DB93576358404EBC404034800EB02
:102AEC008400FFF745FF70BD704700BF380200201F
:102AFC0038B50546B0F57A7F01D94FF47A750A4B93
:102B0C001B7833B1084B5B88AB4202D0064B0022DA
:102B1C001A70002405E029462046FFF7C7FF013450
:102B2C00E4B2032CF7D938BD300200202DE9F04770
:102B3C008246002528E0DFF8688005EBC50308EB2A
:102B4C00830448F823A0174B53F825306360164BC9
:102B5C0053F82530A360154B33F81530A3810027AB
:102B6C004FF00006E7812782FEF754FE606126765F
:102B7C00A676E6762677E783278484F822602046BB
:102B8C00FFF7F6FE0135EDB2032DD4D9084B00202A
:102B9C00187058805860FFF7ABFFBDE8F08700BF96
:102BAC0038020020F4510008E4510008DC51000800
:102BBC003002002038B50546144B1B781BB1134B63
:102BCC005B68834201D900241CE0104C6088FFF73D
:102BDC008FFF6388B3F57A7F02D300222270F2E76D
:102BEC0032330A4A538005F1FA035360EBE704EBE6
:102BFC00C4002A462146064B03EB8000FFF7FEFE7D
:102C0C000134E4B2032CF2D938BD00BF30020020ED
:102C1C003802002003281ED808B500EBC00C0E4B60
:102C2C0003EB8C03198469B162B14FF47A7303FB23
:102C3C0001F1B1FBF2F1952908D9994207D94FF46A
:102C4C007A7104E00021FFF731FF03E0962189B28D
:102C5C00FFF72CFF08BD70473802002088B170B513
:102C6C000D46064661B1002408E035F8142036F80C
:102C7C0014102046FFF7CEFF0134E4B2032CF4D934
:102C8C0070BD7047034B01221A7000225A805860A5
:102C9C00704700BF30020020014B1878704700BF0E
:102CAC003002002008B50023084A137008E003EB3B
:102CBC00C301074A02EB8102002111840133DBB20C
:102CCC00032BF4D90020FFF713FF08BD30020020BE
:102CDC00380200200023032B0AD803EBC301064A59
:102CEC0002EB8102927E032A04D00133DBB2F2E7BD
:102CFC0000207047012070473802002000487047C0
:102D0C0052020020014BD889704700BF38020020C6
:102D1C0008B5FFF79DF908BD38B5FEF77BFD104BE4
:102D2C00186000245C601C725C720E4D22464FF4DD
:102D3C0000512846FFF7ECFF22464FF4804128460D
:102D4C00FFF7E6FF22464FF400412846FFF7E0FF6D
:102D5C0022464FF480710448FFF7DAFF38BD00BFFC
:102D6C00C80200200010014000080140014B5872BD
:102D7C00704700BFC8020020F8B5324B1B68C31A5D
:102D8C00B3F5FA7F05D32F4B18601A7A82F0010243
:102D9C001A722C4B5B7A022B1AD00AD9032B3DD01A
:102DAC00042B0FD1274B1B7A1D4600231F461E46B2
:102DBC0014E0002B3AD0012B3DD11F4600221646C1
:102DCC001D460BE000231F46012216461D4605E05A
:102DDC001C4B1B7A1D4600231F461E46194B5A6876
:102DEC00821A194C642A8CBF002201224FF48041B4
:102DFC002046FFF78DFF2A464FF400512046FFF77F
:102E0C0087FF32464FF400412046FFF781FF3A46D8
:102E1C004FF480710D48FFF77BFFF8BD094B1B7A0F
:102E2C001F4600231E4601231D46D7E71F461E469C
:102E3C0001231D46D2E700231F46012216461D46DC
:102E4C00CCE700BFC8020020001001400008014080
:102E5C00014B5860704700BFC8020020014B187B23
:102E6C00704700BFD4020020012804D0022804D0EF
:102E7C0028B9044870470448704704487047044810
:102E8C00704700BFAC4D0008B04D0008B44D0008B1
:102E9C00B84D000800220FE002EB4203C3EBC30362
:102EAC00203307490B44002159609960D96019619E
:102EBC00596119760132D2B2032AEDD9704700BF9D
:102ECC00D4020020032845D830B587B004460D46FF
:102EDC00084601B34FF02033009301930293039300
:102EEC00049300238DF81430FDF70AF902461428D8
:102EFC0000D914222946684600F0F5FE04EB440084
:102F0C00C0EBC0002030144B184414226946043026
:102F1C0000F0AAFE08B907B030BD6A462146002071
:102F2C00FFF7C0FB04EB4404C4EBC4040A4B03EBF3
:102F3C00040C6C460FCCCCF82400CCF82810CCF840
:102F4C002C20CCF830302068CCF8340023798CF865
:102F5C003830E0E7704700BFD40200202DE9F04183
:102F6C008AB0FFF77BFF06464700FFB21D490020E1
:102F7C00FFF7A8FF00240BE06B1C1B4A152104A8CB
:102F8C0000F004FD0134E4B204A92046FFF79AFFD7
:102F9C00012C1DD8E519EDB2144B1B6A002BEBD09C
:102FAC00032DE9D805EB850203EB420813F8120058
:102FBC00FFF75AFF98F80830B8F8042002920193F2
:102FCC0000906B1C0A4A152104A800F0DFFCD9E71D
:102FDC0036B908490320FFF775FF0AB0BDE8F08148
:102FEC000549F7E7DC4D0008FC4D0008D402002031
:102FFC00E84D0008BC4D0008CC4D00082DE9F0410F
:10300C0088B00446FFF72AFF80464600F6B22146F8
:10301C000020FFF757FF00240BE06B1C214A152101
:10302C0002A800F0B3FC0134E4B202A92046FFF779
:10303C0049FF012C1ED8A519EDB21B4B5A69002A69
:10304C00EBD0032DE9D8EF00C5EBC50302EB43022F
:10305C00907800F0B5FB144B5B697A1B03EB4203D1
:10306C00DB88019300906B1C104A152102A800F01C
:10307C008DFCD8E70C4B1B78022B0ED002AC4346D0
:10308C0001330B4A1521204600F080FC2146032019
:10309C00FFF718FF08B0BDE8F08106490320FFF7E1
:1030AC0011FFF7E7FC4D0008D4020020084E000881
:1030BC002C4E0008184E000830B58FB0294B1B7CE5
:1030CC002BB129490020FFF7FDFE002410E0274911
:1030DC00F8E74623013402AD00932346244A152118
:1030EC00284600F053FCE4B229462046FFF7EAFEDE
:1030FC00012C0FD81B4BDB7BE34013F0010FE8D105
:10310C00184B9B7BE34013F0010F01D12D23E1E71A
:10311C005023DFE7134BDA7B12F0040F05D19B7BB6
:10312C0013F0040F0CD0502300E0462312F0080FCC
:10313C0008D10C4A927B12F0080F11D0502202E0F9
:10314C002D23F3E7462208AC00920A4A15212046AB
:10315C0000F01CFC21460320FFF7B4FE0FB030BD7D
:10316C002D22F0E7D4020020384E00084C4E000807
:10317C005C4E00086C4E00082DE9F0418CB0FFF756
:10318C006DFE4000C6B2002401E00134E4B2012C13
:10319C004ED8A319DDB2284B5B69002BF5D0264A1B
:1031AC009269002AF1D0244AD269002AEDD0224A31
:1031BC00126A002AE9D0032DE7D86F1CC5EBC502B3
:1031CC0003EB4203987800F0FBFADFF86C80D8F838
:1031DC00203005EB85025100059103EB42039B88DF
:1031EC00D8F81C2032F815200292019300903B462F
:1031FC00124A152106A800F0C9FB06AB1946204659
:10320C00FFF760FED8F818305A5DD8F820300599D1
:10321C000B441B7A019300923B46094A152106A8E0
:10322C0000F0B4FBA01C06A9C0B2FFF74BFEACE744
:10323C000CB0BDE8F08100BFD40200207C4E000829
:10324C008C4E000800B587B0254B5B7C03BB244B30
:10325C001B78032B2CD01FD9042B2CD0052B2DD154
:10326C0020490020FFF72EFE1F490120FFF72AFE00
:10327C001B4BDB7B1D4A1521684600F087FB69461A
:10328C000220FFF71FFE1A490320FFF71BFE01E087
:10329C00FFF764FE07B000BD012B05D0022B0DD14A
:1032AC001448FFF7ABFEF5E71348FFF7A7FEF1E76D
:1032BC00FFF702FFEEE7FFF75FFFEBE70F49002098
:1032CC00FFF700FE0E490120FFF7FCFD0C49022020
:1032DC00FFF7F8FD0A490320FFF7F4FDDAE700BF1A
:1032EC00D4020020BC4E0008CC4E0008E04E000872
:1032FC00F44E0008AC4E00089C4E0008044F000829
:10330C00BC4F000838B5FFF7ABF9FFF7C3F9FFF76F
:10331C00C1FD074C00252570FEF77CFA6060FEF7B6
:10332C0079FAA060257301236373657438BD00BFFF
:10333C00D4020020154B5B68834202D9134B5B7B94
:10334C0013B310B5114B1A78531EDBB2012B04D9F1
:10335C00042A02D00D4B5B7C73B10C4B9B68C31AD7
:10336C0040F2DB52934207D9084B98601A7B82F0EB
:10337C0001021A7301225A73FA30044C6060FFF791
:10338C0061FF0023637310BD704700BFD40200209F
:10339C0010B50446084B1B78012B05D1064B0122B6
:1033AC001A705C615A7310BDFEF734FA024B9860C8
:1033BC0000221A73F2E700BFD402002010B50446B5
:1033CC00084B1B78022B06D1064B02221A705C614B
:1033DC0001225A7310BDFEF71DFA024B98600022B1
:1033EC001A73F1E7D4020020054B4FF0030C83F85D
:1033FC0000C09873D9731A7401225A73704700BFB6
:10340C00D4020020F8B504460D4616461F460A4B5A
:10341C001B78042B09D1084B04221A705C619D6146
:10342C00DE611F6201225A73F8BDFEF7F3F9024BFD
:10343C00986000221A73EEE7D4020020034B052299
:10344C001A70D87301225A73704700BFD40200203F
:10345C0010B5064C637C83F001036374FEF7DAF954
:10346C00A060002323730123637310BDD4020020DA
:10347C0008B50E4800F0E8FB0D4800F0E5FB0D48E0
:10348C0000F0E2FB0C4800F0DFFB0C4800F0DCFB2A
:10349C000B4800F0D9FB0B4800F06EFB0A4800F01B
:1034AC006BFB0A4800F0D0FB08BD00BF184F0008AA
:1034BC00284F0008344F00084C4F0008644F000898
:1034CC007C4F0008984F0008C04F0008E04F0008E0
:1034DC00F0B583B0FFF712FC0546FFF713FC1D494E
:1034EC00A1FB0031CB08C1F3CF02164603EB8303DB
:1034FC00A0EB430084B2FFF7EDFB70B1164B1F46F7
:10350C00FFF7CAFB60B1154B00933B462246314690
:10351C00134800F031FB002117E0124B1F46EFE778
:10352C00114BF1E701EB810305EB430415F8132074
:10353C00A388207A94F802C04C1CCDF804C00090EB
:10354C0021460A4800F018FBE1B20329EAD903B07E
:10355C00F0BD00BFCDCCCCCC00500008085000080A
:10356C000C50000804500008AC4D000840500008F6
:10357C0010B582B0002407E0CDF804C000900E48CE
:10358C0000F0FAFA0134E4B2032C13D82046FFF70A
:10359C008DF984460028F5D0611C02884388007997
:1035AC0000B101209CF805C0BCF1000FE4D04FF035
:1035BC00010CE1E702B010BD6C50000808B5FFF734
:1035CC0057FF08BD00B583B0002301220DF10701A0
:1035DC003A48FEF70FFF08B103B000BDFEF71AF929
:1035EC00FFF736FC9DF80710542936D018D841291E
:1035FC0036D009D830293BD03F2940D1FFF728FFDE
:10360C002F4800F021FBE7E7482923D0532910D09D
:10361C00432934D100F068F92A4800F015FBDBE7A8
:10362C00682917D008D9742917D07A290AD0732998
:10363C0025D1FFF74DFFCFE7612911D06329E9D0E0
:10364C005A291CD1FEF7E6F8FFF71CFB1E4800F0C8
:10365C0093FAC1E7FFF70CFFBEE7FFF789FFBBE763
:10366C004FF47A70FFF744FA184800F085FAB3E784
:10367C000020FFF73DFA164800F07EFAACE7A1F106
:10368C003103DBB2082B14D8A1F130039BB203EB4E
:10369C00830303EB8300800080B2FFF729FA9DF8C7
:1036AC000710303901EB810149000A4800F064FA37
:1036BC0092E7094800F060FA8EE700BF6001002035
:1036CC00E4500008A0500008B8500008FC50000856
:1036DC001C5100083C5100085C51000810B582B028
:1036EC0004468DF807004FF0FF3301220DF107015E
:1036FC000248FEF719FE204602B010BD6001002002
:10370C0000B583B0002301220DF107010548FEF737
:10371C0071FE18B99DF8070003B000BD4FF0FF30E3
:10372C00FAE700BF60010020024B00221A705A70A9
:10373C00704700BF4C0300200023032B33D870B517
:10374C0009E0CCEBCC0C1A4A02EB4C02D0810133D1
:10375C00DBB2032B22D89C46164A03EB830E02EBFA
:10376C004E014C7A0D7A601B80B212F81E60C3EBCE
:10377C00C30E0F4A02EB4E029670B1F802E0A2F8AB
:10378C0004E08E88D680C98811819572D472A1EB21
:10379C000E0191810028D4D10120D2E7044B0122E3
:1037AC001A705A7070BD024B01221A705A70704711
:1037BC004C03002004520008004870474C030020C2
:1037CC00022809D004D848B1012809D1064870470D
:1037DC00032807D1054870470548704705487047CE
:1037EC00054870470448704790510008A0510008E4
:1037FC009851000888510008A851000800285DD095
:10380C00F0B50C4611461D468646002C55D0002AB4
:10381C0053D0002B51D0002027E0C0EBC0060EEB9C
:10382C004606F67A964205D8C0EBC0030EEB43036E
:10383C001A892AE0D31AC0EBC0020EEB4202978819
:10384C00968906FB03F3D289B3FBF2F33A461A448A
:10385C001BE0CCEBCC030EEB43031B89934200D350
:10386C00134625F81C300130C0B2032825D88446F5
:10387C00225CC0EBC0030EEB43039B7A9342CCD388
:10388C00C0EBC0030EEB43039A880CEB4C0301EB2B
:10389C0043031B79002BDCD00CEB4C0301EB4303F3
:1038AC005B88C8339342D4D2CCEBCC030EEB4303EE
:1038BC00DB889342CDD91A46CBE7F0BD70470000A8
:1038CC00014B00221A7070478603002070470000DD
:1038DC00014B1878704700BF86030020014B002273
:1038EC001A70704786030020014B01221A70704732
:1038FC0086030020044B1C221A701F225A702222AD
:10390C009A702522DA70704788030020084BA3FBBD
:10391C000030C0F3C11000F11C02064B1A704208B3
:10392C0002F11F015970223098702532DA707047FD
:10393C00D34D621088030020004870478803002094
:10394C00FEF7C1FD0B480C490C4A002302E0D45889
:10395C00C4500433C4188C42F9D3094A094C0023CF
:10396C0001E013600432A242FBD300F095F9FCF79E
:10397C00F3FD704700000020680000207052000822
:10398C0068000020D8040020FEE700000CB430B51D
:10399C00154B0C1E1D689DB008DA8B234FF0FF30C1
:1039AC002B601DB0BDE8304002B070474FF00003F3
:1039BC001B9318BF0123E31A049307930B4B02903C
:1039CC0006900593284621AB209A02A9019300F09A
:1039DC00F9F9431CBCBF8B232B60002CE1D00022D7
:1039EC00029B1A70DDE700BF180000200802FFFFE1
:1039FC00002310B50446C0E90033C0E904338360EA
:103A0C0081814366C2818361194608225C3000F0D3
:103A1C0023F90D4B246263620C4BA3620C4BE362E3
:103A2C000C4B23630C4B9C4206D003F1680294426E
:103A3C0002D0D0339C4205D104F15800BDE81040AF
:103A4C0000F04EB910BD00BFCD460008EF4600088F
:103A5C00274700084D4700088C030020024A034901
:103A6C00034800F06BB800BF0C0000204D48000864
:103A7C001C00002041680C4B10B59942044601D043
:103A8C0000F0DEFEA168094B994202D0204600F0FE
:103A9C00D7FEE168064B994204D02046BDE81040A1
:103AAC0000F0CEBE10BD00BF8C030020F40300203C
:103ABC005C04002010B50A4B0A4A04211A600A481B
:103ACC000022FFF795FF012209210848FFF790FF1C
:103ADC00BDE81040022212210548FFF789BF00BF44
:103AEC00C4040020693A00088C030020F403002071
:103AFC005C040020014800F0F4B800BFC9040020A9
:103B0C00014800F0EFB800BFC904002010B504460E
:103B1C00FFF7F0FF236A1BB1BDE81040FFF7F0BFC1
:103B2C00044B2362044B1B68002BF5D1FFF7C2FF3B
:103B3C00F2E700BF813A0008C40400202DE9F843E5
:103B4C008046894614460026D4E90175013F05D507
:103B5C002468002CF8D13046BDE8F883AB89012BE2
:103B6C0007D9B5F90E30013303D029464046C84772
:103B7C0006436835EAE700000FB407B5064904AB05
:103B8C00086853F8042B8168019300F0D9FA03B04C
:103B9C005DF804EB04B0704718000020036A70B5A0
:103BAC0005460E4684680BB9FFF7B0FF636EDB0762
:103BBC0005D4A389980502D4A06D00F092F8A389CE
:103BCC00190702D52369002B35D12146284600F070
:103BDC00CBFE80B34FF0FF35636EDA0705D4A389B3
:103BEC009B0502D4A06D00F07DF8284670BD002B1B
:103BFC0004DAA269934217DB0A2915D023685A1CF0
:103C0C0022601970A36816F8011F013BA3600029FC
:103C1C00EDD18B4211DA22460A21284600F066FECD
:103C2C000130D7D00A25D7E72246284600F05EFEA1
:103C3C000130E7D1CEE7013EE4E723685A1C22604D
:103C4C000A221A70EEE70000024B01461868FFF7D3
:103C5C00A5BF00BF1800002003460244934200D1C8
:103C6C00704703F8011BF9E710B56AB101398418E4
:103C7C00027811F8013F9A4204D10130A04201D0E0
:103C8C00002AF5D1D01A10BD1046FCE7014B18687C
:103C9C00704700BF1800002070B500260C4C0D4B6F
:103CAC001D1BB6EBA50F09D1002600F0FFFF0A4C37
:103CBC000A4B1D1BB6EBA50F05D170BD54F8043B88
:103CCC0098470136EDE754F8043B98470136F1E785
:103CDC006852000868520008685200086C520008CC
:103CEC007047704770470A44914200F1FF3300D18E
:103CFC00704710B511F8014B914203F8014FF9D1FF
:103D0C0010BD2DE9F0471F468E688246BE420C4618
:103D1C009046334653D8B1F90C0010F4906F2BD069
:103D2C0065692368096905EB4505A3EB010905EBFA
:103D3C00D5757B1C6D104B44AB422A4684BF1D4687
:103D4C002A46430527D51146504600F055F906463C
:103D5C0058B34A462169FFF7C6FFA38923F4906341
:103D6C0043F08003A38126614E4426603B463E46C9
:103D7C006561A5EB0905A5601F463A4641462068DA
:103D8C0000F0A3FE0020A3689B1BA36023683B44A8
:103D9C002360BDE8F087504600F07AFD0646002807
:103DAC00E1D15046216900F02FFF0C23CAF80030F6
:103DBC00A3894FF0FF3043F04003A381E9E73E466F
:103DCC00DBE700002DE9F0471F468B8906461B06F2
:103DDC000D4614469CB010D50B6973B9402100F008
:103DEC000BF92860286130B90C2333604FF0FF3099
:103DFC001CB0BDE8F08740236B610023099320239E
:103E0C008DF8293030234FF001080397644F8DF85B
:103E1C002A3023461A7899461AB1252A03F1010350
:103E2C00F8D1B9EB040A0BD053462246294630464A
:103E3C00FFF767FF013000F0A380099A5244099202
:103E4C0099F80030002B00F09B8000224FF0FF33DC
:103E5C00CDE9053209F10109049207928DF853203E
:103E6C001A924C46052214F8011B4D4800F0BEFE78
:103E7C00049AD0B9D00644BF20238DF853301107D3
:103E8C0044BF2B238DF8533099F800302A2B13D0D4
:103E9C004B4600204FF00A0C07991A781C46303A12
:103EAC00092A4AD9A8B1079113E0C01B08FA00F0FF
:103EBC001043A1460490D4E7039B191D1B68039182
:103ECC00002BBBBF5B4242F0020207930793B8BFC3
:103EDC00049223782E2B0AD163782A2B32D1039BA0
:103EEC0002341A1D1B68039243EAE3730593DFF84F
:103EFC00B49003224846217800F078FE38B1402275
:103F0C00049BA0EB090082401343013404932178F5
:103F1C00062225488DF8281000F068FE002835D0C0
:103F2C00224818BB039B073323F007030833039382
:103F3C00099B0134034409936BE701200CFB01211D
:103F4C000133AAE700234FF00A0C18460593611CB5
:103F5C000A780C46303A092A03D9002BC7D00590B1
:103F6C00C5E701230CFB00200131F1E703AB009303
:103F7C002A4630460E4B04A9AFF30080421CD7D121
:103F8C00AB895B063FF532AF099831E703AB009381
:103F9C002A463046064B04A900F05CFAEEE700BF57
:103FAC002C52000832520008365200080000000063
:103FBC000F3D000870B50F4C0E462168054611B92F
:103FCC0000F0D0FD20603146284600F0CBFD431CAC
:103FDC0003D14FF0FF34204670BDC41C24F0030401
:103FEC00A042F8D0211A284600F0BCFD0130F2D1D5
:103FFC00EFE700BFCC0400202DE9F843CD1C25F0E1
:10400C00030508350C2D38BF0C25002D064601DBA9
:10401C00A94204D90C2333600020BDE8F883334F48
:10402C0000F042FB3B681C463CBB29463046FFF780
:10403C00C1FF431C044656D13C68A046B8F1000FA2
:10404C0040D1002C49D023684146304604EB03098B
:10405C0000F088FD814540D1216830466D1A294613
:10406C00FFF7A8FF013038D023682B4423603B684E
:10407C005A685ABBC7F800800EE02268521B1ED447
:10408C000B2A16D96119A342256018BF59606368C1
:10409C0008BF396062514B60304600F00BFB04F1F5
:1040AC000B00231D20F00700C21A1CBF1B1AA350C3
:1040BC00B3E76268A3420CBF3A605A60ECE7234650
:1040CC006468B1E74446D8F80480B7E71A465B68E1
:1040DC00A342FBD100235360DEE70C233046336050
:1040EC0000F0E8FA98E70560D6E700BFD00400209E
:1040FC00936810B4013B002B936007DA9469A342D8
:10410C0001DB0A2902D110BC00F0F0BB1368581C6B
:10411C0010601970084610BC7047F8B506460F467B
:10412C001446D518AC4201D1002007E03A4630467F
:10413C0014F8011BFFF7DCFF431CF3D1F8BD0000A2
:10414C002DE9F04706460D4614461F469CB018B1A3
:10415C00036A0BB9FFF7DAFC6B6ED90705D4AB8990
:10416C009A0502D4A86DFFF7BCFDAB891B0701D5DE
:10417C002B699BB92946304600F0F6FB70B16B6E8B
:10418C00DE0704D54FF0FF301CB0BDE8F087AB89DB
:10419C009C05F7D4A86DFFF7A5FDF3E70023099361
:1041AC0020238DF8293030234FF001080397694FF5
:1041BC008DF82A3023461A7899461AB1252A03F12C
:1041CC000103F8D1B9EB040A0BD053462246294619
:1041DC003046FFF7A2FF013000F0A380099A524449
:1041EC00099299F80030002B00F09B8000224FF0D0
:1041FC00FF33CDE9053209F10109049207928DF8DC
:10420C0053201A924C46052214F8011B514800F019
:10421C00EDFC049AD0B9D00644BF20238DF853305E
:10422C00110744BF2B238DF8533099F800302A2BFB
:10423C0013D04B4600204FF00A0C07991A781C46F5
:10424C00303A092A4AD9A8B1079113E0C01B08FAE1
:10425C0000F01043A1460490D4E7039B191D1B6882
:10426C000391002BBBBF5B4242F002020793079302
:10427C00B8BF049223782E2B0AD163782A2B32D123
:10428C00039B02341A1D1B68039243EAE3730593E4
:10429C00DFF8C49003224846217800F0A7FC38B11F
:1042AC004022049BA0EB0900824013430134049389
:1042BC002178062229488DF8281000F097FC002858
:1042CC003ED0274818BB039B073323F00703083362
:1042DC000393099B0134034409936BE701200CFB06
:1042EC0001210133AAE700234FF00A0C184605936D
:1042FC00611C0A780C46303A092A03D9002BC7D026
:10430C000590C5E701230CFB00200131F1E703AB5D
:10431C0000932A463046134B04A9AFF30080431C8C
:10432C00D7D16B6ED90705D4AB899A0502D4A86D89
:10433C00FFF7D8FCAB895B063FF524AF099823E760
:10434C0003AB00932A463046064B04A900F082F8D2
:10435C00E5E700BF2C520008325200083652000824
:10436C0000000000274100082DE9F04791469846CF
:10437C008A680B6907469342B8BF1346C9F80030E8
:10438C0091F843200C46089E12B10133C9F8003055
:10439C002368990642BFD9F800300233C9F80030BF
:1043AC00256815F0060507D104F1190AE368D9F858
:1043BC0000209B1AAB4229DC94F843302268003B66
:1043CC0018BF012392062ED44146384604F143020D
:1043DC00B047013021D02368A16803F00603042BF9
:1043EC0012BF0025E568D9F80030226904BFED1A28
:1043FC0025EAE5758B1A2B449142C8BF1D464FF038
:10440C0000091A344D451AD1002008E00123524608
:10441C0041463846B047013003D14FF0FF30BDE87C
:10442C00F0870135C2E73020E11881F843005A1CAF
:10443C0094F845102244023382F84310C4E7012358
:10444C00224641463846B0470130E6D009F1010911
:10445C00D8E700002DE9F04398460B7E85B0782B09
:10446C00174606460C460C9A09D8622B01F14301FB
:10447C0008D8002B00F0DC80582B00F0BD8004F134
:10448C00420539E0A3F163001528F8D801A555F8C9
:10449C0020F000BFF94400080D4500088B440008CB
:1044AC008B4400088B4400088B4400080D45000821
:1044BC008B4400088B4400088B4400088B44000894
:1044CC001D46000839450008CB4500088B44000800
:1044DC008B440008454600088B4400083945000809
:1044EC008B4400088B440008D3450008136804F182
:1044FC004205191D1B68116084F842300123A8E0A5
:10450C0013682568181D1060280601D51B6803E088
:10451C006A06FBD5B3F90030002B03DA2D225B427F
:10452C0084F843200A22DFF878C113E0256810686C
:10453C0015F0800F50F8043B02D16D0648BF9BB2BA
:10454C001060227EDFF858C16F2A5DD1082200204E
:10455C0084F843006568002DA56005DB20681D43C9
:10456C0020F00400206051D00D46B3FBF2F002FBAA
:10457C00103E1CF80EE09A4205F801ED0346F4D902
:10458C00082A0BD12368DA0708D5236962689A4296
:10459C00DEBF302305F8013C05F1FF35491B2161D5
:1045AC003B4621463046CDF8008003AAFFF7DCFEDF
:1045BC00013053D14FF0FF3005B0BDE8F0832368D4
:1045CC0043F0200323607823DFF8D8C084F845300B
:1045DC002068156810F0800F55F8043B03D110F0DB
:1045EC00400F18BF9BB21560C50744BF40F02000B8
:1045FC00206023B11022AAE7DFF8A4C0E6E7226806
:10460C0022F020022260F5E70A22A0E70D46B7E768
:10461C001368D4F800C01D1D60691CF0800F156074
:10462C001B6801D0186003E01CF0400FFAD0188012
:10463C0000230D462361B3E71368191D11601D6833
:10464C0000212846626800F0D1FA08B1401B606076
:10465C0063682361002384F84330A1E72A46394676
:10466C0030462369C0470130A4D023689B0714D47B
:10467C00E068039B9842B8BF18469DE70123394672
:10468C00304604F11902C047013093D00135E3687C
:10469C0003995B1AAB42F1DCEAE70025F7E700BFB0
:1046AC003D5200084E5200080148FFF71ABB00BFEC
:1046BC00C80400200148FFF715BB00BFC804002048
:1046CC0010B50C46B1F90E1000F03AFA0028ABBF49
:1046DC00636DA3891B1823F48053ACBF6365A3815E
:1046EC0010BD2DE9F0411F468B890546DB050C46B4
:1046FC00164605D502230022B1F90E1000F00EFA71
:10470C00A389324623F48053A38128463B46B4F94F
:10471C000E10BDE8F04100F035BA10B50C46B1F9F9
:10472C000E1000F0FBF9B4F90C30421C0BBF23F453
:10473C00805343F48053A381A38118BF606510BDDF
:10474C00B1F90E1000F030BAB1F90C20F8B516071B
:10475C0005460C4651D44B68002B02DC0B6C002B2D
:10476C0049DDE66A002E46D0002312F480522F68F1
:10477C002B6031D0626DA389590705D56368D21AB5
:10478C00636B0BB1236CD21A00232846E66A216AAC
:10479C00B047421CB4F90C3006D129681D2944D805
:1047AC00264ACA40D60740D5002262602269D90445
:1047BC00226004D5421C01D12B6803B96065616B82
:1047CC002F60C1B104F14403994202D0284600F095
:1047DC001BFA002363630EE001232846216AB047CD
:1047EC000246501CC7D12B68002BC4D01D2B01D006
:1047FC00162B19D12F6000201CE00F69002FFAD066
:10480C00930718BF00230E6808BF4B69F61B0F6097
:10481C008B60002EEFDD33463A462846216AD4F8E9
:10482C0028C0E047002806DCA3894FF0FF3043F096
:10483C004003A381F8BD0744361AEAE70100402083
:10484C0038B50B6905460C4613B91D46284638BDCC
:10485C0018B1036A0BB9FFF759F9B4F90C30002BF6
:10486C00F3D0626ED00704D4990502D4A06DFFF783
:10487C0038FA28462146FFF767FF636E0546DA07CC
:10488C00E4D4A3899B05E1D4A06DFFF72BFADDE7F7
:10489C002DE9F041074615460C4621B91146BDE8F5
:1048AC00F041FFF7A9BB2AB900F0AEF92C4620461F
:1048BC00BDE8F08100F0F2F98542064602D8B5EB6E
:1048CC00500FF4D829463846FFF796FB804608B9B6
:1048DC004446ECE7B5422A46214628BF3246FFF74C
:1048EC0002FA2146384600F08FF9F1E7F8B5054693
:1048FC000F46144618B1036A0BB9FFF707F9A36901
:10490C00A360A3891A0701D5236943B92146284618
:10491C0000F02AF818B14FF0FF363046F8BD236985
:10492C002068C01A6369834205DC21462846FFF7DC
:10493C0087FF0028EFD1A3680130013BA3602368F7
:10494C00FEB25A1C22601F706369834204D0A38993
:10495C00DB07E2D50A2EE0D121462846FFF770FF8F
:10496C000028DAD0D7E7000038B5284B0546186880
:10497C000C4618B1036A0BB9FFF7C8F8B4F90C3040
:10498C00190720D4DA0607D409222A6043F0400321
:10499C004FF0FF30A38131E0580711D5616B41B165
:1049AC0004F14403994202D0284600F02DF900236B
:1049BC0063630022A3896260226923F024032260CE
:1049CC0043F00803A38123694BB9A38903F4207333
:1049DC00B3F5007F03D02146284600F03DF8B4F92A
:1049EC000C3013F001020AD00022A260626952421C
:1049FC00A261226942B913F08000C7D138BD990772
:104A0C0058BF6269A260F4E70020F7E718000020A5
:104A1C0070B50E46B1F90E10144600291D4696B01D
:104A2C000ADAB28912F0800213D14FF480610020AF
:104A3C002A60216016B070BD6A4600F0C5F80028E7
:104A4C00EFDB019A02F47042A2F500535A425A412C
:104A5C00EBE700224021EAE78B8973B59E070546F8
:104A6C000C4607D504F147032360236101236361DE
:104A7C0002B070BD01AB6A46FFF7CAFF009E284624
:104A8C003146FFF7B9FAB4F90C3038B99A05EFD4BE
:104A9C0023F0030343F00203A381E3E743F0800315
:104AAC00A381019BC4E904062060002BE0D02846BA
:104ABC00B4F90E1000F022F80028D9D0A38923F005
:104ACC00030343F00103A381D2E7884210B501EB45
:104ADC00020402D98442234607D8431EA14207D0C0
:104AEC0011F8012B03F8012FF8E70244824200D1A0
:104AFC0010BD13F8011D02F8011DF7E738B50023AE
:104B0C00054C054608462360FDF72AFD431C02D1DF
:104B1C00236803B12B6038BDD404002038B505469A
:104B2C00084611460022054C22601A46FDF71AFD74
:104B3C00431C02D1236803B12B6038BDD404002080
:104B4C0038B50546084611460022054C22601A4627
:104B5C00FDF7E0FC431C02D1236803B12B6038BD88
:104B6C00D404002038B50023054C054608462360C4
:104B7C00FDF7AAFC431C02D1236803B12B6038BD9E
:104B8C00D404002038B50546084611460022054CD1
:104B9C0022601A46FDF7CEFC431C02D1236803B1F8
:104BAC002B6038BDD404002038B50023054C0546D5
:104BBC0008462360FDF7CCFC431C02D1236803B1EB
:104BCC002B6038BDD404002038B50023064C0546B4
:104BDC00084611462360FDF7BEFC431C02D1236836
:104BEC0003B12B6038BD00BFD4040020034610B5C0
:104BFC00C9B20244934201D1002004E01846047863
:104C0C0001338C42F6D110BD37B5002942D051F892
:104C1C00043C0C1F002BB8BFE4180190FFF744FDB7
:104C2C001D4A0198136833B96360146003B0BDE882
:104C3C003040FFF73FBDA34208D9256861198B426C
:104C4C0001BF19685B6849192160EDE71A465B687A
:104C5C000BB1A342FAD911685518A5420BD124689F
:104C6C0021445418A3421160E0D11C685B680C44C9
:104C7C0014605360DAE702D90C230360D6E7256889
:104C8C0061198B4201BF19685B6849192160636027
:104C9C005460CBE703B030BDD004002051F8043C85
:104CAC00181F002BBCBF0B58C0187047F8B500BFBD
:104CBC00F8BC08BC9E467047F8B500BFF8BC08BCF1
:044CCC009E46704749
:104CD0000D0A5B424F4F545D2055415254204F4BBB
:104CE0000D0A00005B424F4F545D2054494D322065
:104CF0004F4B0D0A000000005B424F4F545D2054A3
:104D0000494D33204F4B0D0A000000005B424F4FCE
:104D1000545D20504552495048204F4B0D0A000029
:104D20005B424F4F545D2054414348204F4B0D0A86
:104D3000000000005B424F4F545D2046414E204F23
:104D40004B0D0A005B424F4F545D204C4544204FB1
:104D50004B0D0A005B424F4F545D2042544E204F92
:104D60004B0D0A005B424F4F545D2054454D50207F
:104D70004F4B0D0A000000005B424F4F545D205026
:104D8000524F46494C204F4B0D0A00005B424F4F9B
:104D9000545D204C4344204F4B0D0A005B424F4F63
:104DA000545D20415050204F4B0D0A004F464600A5
:104DB0005354410052554E004552520046312F4641
:104DC0003220203F3D6578697400000046332F464D
:104DD0003420203F3D6578697400000046616E20F4
:104DE00044656275670000004625752025732050D4
:104DF00025337520542534750000000046257520A4
:104E00002D2D2D2D0000000046257520252D3673F3
:104E1000202534757200000057616974696E67203F
:104E2000636F6E6669726D2E2E2E0000506167658D
:104E30002025752F32000000537461727475702044
:104E40005465737420446F6E650000005374617282
:104E500074757020546573740000000046616E25FF
:104E6000752054616368205B25635D0046335B25D4
:104E7000635D2046345B25635D0000004625752098
:104E800025732025752F2575000000005425753DDC
:104E900025754320443D25752525000050726F6619
:104EA000696C6573205265616479000050726573A6
:104EB00073202763272055415254000053746172B8
:104EC000747570204661696C757265005361666522
:104ED0002053746174652041637469766500000035
:104EE0004661696C206D61736B3A203078253032F1
:104EF000580000005265736574207265717569729F
:104F00006564000041464C4320496E697469616CD8
:104F1000697A696E670000000D0A436F6D6D616EFE
:104F200064733A0D00000000202068203A20686574
:104F30006C700D00202073203A2073797374656DB6
:104F4000207374617475730D0000000020207420BC
:104F50003A20746163682F72706D20737461747588
:104F6000730D0000202063203A20636F6E66697223
:104F70006D20737461727475700D000020203F20E5
:104F80003A20746F67676C65204C43442066616EFD
:104F90002064656275670D002020302E2E39203A7E
:104FA0002073657420616C6C2066616E7320746F71
:104FB000203025252E2E393025250D0A0000000031
:104FC000202061203A2073657420616C6C2066613A
:104FD0006E7320746F2031303025250D0A000000DB
:104FE00020207A203A206E6F6E2D626C6F636B69A1
:104FF0006E672072616D7020746573740D0000001F
:10500000594553004E4F00004F4E000053797374C2
:10501000656D20737461747573207C204475747998
:105020003D25752E25752525207C204661756C74DF
:105030003D2573207C2052616D703D25730D0A0063
:105040004625752073746174653D25752072706DF9
:105050003D257520647574793D2575252520616C85
:105060006572743D25750D0A0000000054257520F9
:10507000696E73743D25752072706D2066696C745D
:105080003D25752072706D207369676E616C3D25DA
:10509000752074696D656F75743D25750D0A000086
:1050A000436F6E6669726D206576656E74206C6103
:1050B00074636865640D000052616D7020746573DF
:1050C0007420737461727465643A203025252074ED
:1050D0006F203130302525206F7665722035730DB5
:1050E0000A0000004C43442066616E2064656275CE
:1050F0006720746F67676C65640D00004475747990
:105100002073657420746F203130302525206F6E38
:1051100020616C6C2066616E730D0A0044757479B1
:105120002073657420746F20302525206F6E2061F8
:105130006C6C2066616E730D0A0000004475747912
:105140002073657420746F2025752525206F6E20CF
:10515000616C6C2066616E730D0A0000556E6B6E9B
:105160006F776E20636F6D6D616E642027256327F6
:10517000202D2073656E642027682720666F7220BB
:1051800068656C700D0A000053494C454E54000090
:105190004E4F524D414C0000504552460000000019
:1051A000424F4F5354000000554E4B000102000087
:1051B00002030405060708090A0B0C0D0E0F101058
:1051C00000000000010203040000000000000000D5
:1051D000010203040607080980C094D4400080003F
:1051E000010002000008014000080140000C0140DD
:1051F000000C014000000000040000000800000056
:105200000C0000000000BC02B004080718300100C8
:105210008403DC0598081A3702004C046C07280A3E
:105220001C3C030014059808B80B1E41232D302B9D
:105230002000686C4C006566674546470030313297
:1052400033343536373839414243444546003031EE
:10525000323334353637383961626364656600004D
:08526000ACAEFF7F010000006D
:0452680085010008B4
:04526C005D010008D8
:10527000010000001000000000127A000000000091
:10528000030000008C0300201C0000200000000030
:105290008C030020F40300205C04002000000000C8
:1052A00000000000000000000000000000000000FE
:1052B00000000000000000000000000000000000EE
:1052C00000000000000000000000000000000000DE
:0852D0000000000000000000D6
:040000050800394D69
:00000001FF
